{
  "_format": "hh-sol-artifact-1",
  "contractName": "CollateralX",
  "sourceName": "contracts/CollateralX.sol",
  "abi": [
    {
      "inputs": [
        {
          "internalType": "address",
          "name": "_stableCoinAddress",
          "type": "address"
        }
      ],
      "stateMutability": "nonpayable",
      "type": "constructor"
    },
    {
      "anonymous": false,
      "inputs": [
        {
          "indexed": false,
          "internalType": "address",
          "name": "user",
          "type": "address"
        },
        {
          "indexed": false,
          "internalType": "uint256",
          "name": "amount",
          "type": "uint256"
        }
      ],
      "name": "CollateralDeposited",
      "type": "event"
    },
    {
      "anonymous": false,
      "inputs": [
        {
          "indexed": false,
          "internalType": "address",
          "name": "user",
          "type": "address"
        },
        {
          "indexed": false,
          "internalType": "uint256",
          "name": "amount",
          "type": "uint256"
        }
      ],
      "name": "CollateralLiquidated",
      "type": "event"
    },
    {
      "anonymous": false,
      "inputs": [
        {
          "indexed": false,
          "internalType": "address",
          "name": "user",
          "type": "address"
        },
        {
          "indexed": false,
          "internalType": "uint256",
          "name": "amount",
          "type": "uint256"
        }
      ],
      "name": "CollateralWithdrawn",
      "type": "event"
    },
    {
      "anonymous": false,
      "inputs": [
        {
          "indexed": false,
          "internalType": "address",
          "name": "user",
          "type": "address"
        },
        {
          "indexed": false,
          "internalType": "uint256",
          "name": "amount",
          "type": "uint256"
        }
      ],
      "name": "StableCoinBorrowed",
      "type": "event"
    },
    {
      "anonymous": false,
      "inputs": [
        {
          "indexed": false,
          "internalType": "address",
          "name": "user",
          "type": "address"
        },
        {
          "indexed": false,
          "internalType": "uint256",
          "name": "amount",
          "type": "uint256"
        }
      ],
      "name": "StableCoinRepaid",
      "type": "event"
    },
    {
      "inputs": [],
      "name": "COLLATERAL_RATIO",
      "outputs": [
        {
          "internalType": "uint256",
          "name": "",
          "type": "uint256"
        }
      ],
      "stateMutability": "view",
      "type": "function"
    },
    {
      "inputs": [],
      "name": "INTEREST_RATE",
      "outputs": [
        {
          "internalType": "uint256",
          "name": "",
          "type": "uint256"
        }
      ],
      "stateMutability": "view",
      "type": "function"
    },
    {
      "inputs": [],
      "name": "LIQUIDATION_RATIO",
      "outputs": [
        {
          "internalType": "uint256",
          "name": "",
          "type": "uint256"
        }
      ],
      "stateMutability": "view",
      "type": "function"
    },
    {
      "inputs": [
        {
          "internalType": "uint256",
          "name": "amount",
          "type": "uint256"
        }
      ],
      "name": "borrowStableCoin",
      "outputs": [],
      "stateMutability": "nonpayable",
      "type": "function"
    },
    {
      "inputs": [],
      "name": "depositCollateral",
      "outputs": [],
      "stateMutability": "payable",
      "type": "function"
    },
    {
      "inputs": [
        {
          "internalType": "address",
          "name": "user",
          "type": "address"
        }
      ],
      "name": "getLoanStatus",
      "outputs": [
        {
          "components": [
            {
              "internalType": "uint256",
              "name": "principal",
              "type": "uint256"
            },
            {
              "internalType": "uint256",
              "name": "interest",
              "type": "uint256"
            }
          ],
          "internalType": "struct CollateralX.LoanStatus[]",
          "name": "",
          "type": "tuple[]"
        }
      ],
      "stateMutability": "view",
      "type": "function"
    },
    {
      "inputs": [
        {
          "internalType": "address",
          "name": "user",
          "type": "address"
        }
      ],
      "name": "liquidate",
      "outputs": [],
      "stateMutability": "nonpayable",
      "type": "function"
    },
    {
      "inputs": [
        {
          "internalType": "address",
          "name": "",
          "type": "address"
        }
      ],
      "name": "loanAccounts",
      "outputs": [
        {
          "internalType": "uint256",
          "name": "collateralAmount",
          "type": "uint256"
        }
      ],
      "stateMutability": "view",
      "type": "function"
    },
    {
      "inputs": [
        {
          "internalType": "uint256",
          "name": "amount",
          "type": "uint256"
        },
        {
          "internalType": "uint256[]",
          "name": "indexes",
          "type": "uint256[]"
        }
      ],
      "name": "repayStableCoin",
      "outputs": [],
      "stateMutability": "nonpayable",
      "type": "function"
    },
    {
      "inputs": [],
      "name": "stableCoinAddress",
      "outputs": [
        {
          "internalType": "address",
          "name": "",
          "type": "address"
        }
      ],
      "stateMutability": "view",
      "type": "function"
    },
    {
      "inputs": [],
      "name": "stableCoinInterface",
      "outputs": [
        {
          "internalType": "contract IERC20",
          "name": "",
          "type": "address"
        }
      ],
      "stateMutability": "view",
      "type": "function"
    },
    {
      "inputs": [
        {
          "internalType": "uint256",
          "name": "amount",
          "type": "uint256"
        }
      ],
      "name": "withdrawCollateral",
      "outputs": [],
      "stateMutability": "nonpayable",
      "type": "function"
    }
  ],
  "bytecode": "0x608060405234801561001057600080fd5b506040516122a33803806122a38339818101604052810190610032919061011c565b806000806101000a81548173ffffffffffffffffffffffffffffffffffffffff021916908373ffffffffffffffffffffffffffffffffffffffff16021790555080600160006101000a81548173ffffffffffffffffffffffffffffffffffffffff021916908373ffffffffffffffffffffffffffffffffffffffff16021790555050610149565b600080fd5b600073ffffffffffffffffffffffffffffffffffffffff82169050919050565b60006100e9826100be565b9050919050565b6100f9816100de565b811461010457600080fd5b50565b600081519050610116816100f0565b92915050565b600060208284031215610132576101316100b9565b5b600061014084828501610107565b91505092915050565b61214b806101586000396000f3fe6080604052600436106100a75760003560e01c80635e0b7be7116100645780635e0b7be7146101ce5780636112fe2e146101f75780636f75814014610220578063982aae461461022a578063c4323fea14610255578063d9e69a0514610280576100a7565b8063112130ad146100ac57806318a26dc9146100e95780631b5f047c14610114578063214825581461013d5780632f8655681461017a5780635b72a33a146101a3575b600080fd5b3480156100b857600080fd5b506100d360048036038101906100ce9190611458565b6102ab565b6040516100e0919061157c565b60405180910390f35b3480156100f557600080fd5b506100fe61045e565b60405161010b91906115fd565b60405180910390f35b34801561012057600080fd5b5061013b60048036038101906101369190611644565b610484565b005b34801561014957600080fd5b50610164600480360381019061015f9190611458565b6107cd565b6040516101719190611680565b60405180910390f35b34801561018657600080fd5b506101a1600480360381019061019c9190611458565b6107eb565b005b3480156101af57600080fd5b506101b8610ab3565b6040516101c59190611680565b60405180910390f35b3480156101da57600080fd5b506101f560048036038101906101f09190611700565b610ab8565b005b34801561020357600080fd5b5061021e60048036038101906102199190611644565b610ef5565b005b61022861116f565b005b34801561023657600080fd5b5061023f61124c565b60405161024c919061176f565b60405180910390f35b34801561026157600080fd5b5061026a611270565b6040516102779190611680565b60405180910390f35b34801561028c57600080fd5b50610295611275565b6040516102a29190611680565b60405180910390f35b60606000600260008473ffffffffffffffffffffffffffffffffffffffff1673ffffffffffffffffffffffffffffffffffffffff16815260200190815260200160002090506000816001018054905067ffffffffffffffff8111156103135761031261178a565b5b60405190808252806020026020018201604052801561034c57816020015b610339611371565b8152602001906001900390816103315790505b50905060005b8260010180549050811015610453576040518060400160405280846001018381548110610382576103816117b9565b5b90600052602060002090600202016000015481526020016301e133808560010184815481106103b4576103b36117b9565b5b906000526020600020906002020160010154426103d19190611817565b6064600a8860010187815481106103eb576103ea6117b9565b5b906000526020600020906002020160000154610407919061184b565b61041191906118bc565b61041b919061184b565b61042591906118bc565b81525082828151811061043b5761043a6117b9565b5b60200260200101819052508080600101915050610352565b508092505050919050565b600160009054906101000a900473ffffffffffffffffffffffffffffffffffffffff1681565b6000600260003373ffffffffffffffffffffffffffffffffffffffff1673ffffffffffffffffffffffffffffffffffffffff1681526020019081526020016000209050600081600001541161050e576040517f08c379a00000000000000000000000000000000000000000000000000000000081526004016105059061194a565b60405180910390fd5b60008211610551576040517f08c379a0000000000000000000000000000000000000000000000000000000008152600401610548906119dc565b60405180910390fd5b6000806105ca83600101805480602002602001604051908101604052809291908181526020016000905b828210156105c15783829060005260206000209060020201604051806040016040529081600082015481526020016001820154815250508152602001906001019061057b565b5050505061127a565b9150915060008183866105dd91906119fc565b6105e791906119fc565b905060006105f8856000015461135a565b90506064609683610609919061184b565b61061391906118bc565b811015610655576040517f08c379a000000000000000000000000000000000000000000000000000000000815260040161064c90611aa2565b60405180910390fd5b600160009054906101000a900473ffffffffffffffffffffffffffffffffffffffff1673ffffffffffffffffffffffffffffffffffffffff1663a9059cbb33886040518363ffffffff1660e01b81526004016106b2929190611ac2565b6020604051808303816000875af11580156106d1573d6000803e3d6000fd5b505050506040513d601f19601f820116820180604052508101906106f59190611b23565b610734576040517f08c379a000000000000000000000000000000000000000000000000000000000815260040161072b90611b9c565b60405180910390fd5b846001016040518060400160405280888152602001428152509080600181540180825580915050600190039060005260206000209060020201600090919091909150600082015181600001556020820151816001015550507f258ce9c208464dbae40d3e50931e320ba4e9d3fd92875f412eacacc40a303ca033876040516107bd929190611ac2565b60405180910390a1505050505050565b60026020528060005260406000206000915090508060000154905081565b6000600260008373ffffffffffffffffffffffffffffffffffffffff1673ffffffffffffffffffffffffffffffffffffffff16815260200190815260200160002090506000806108a783600101805480602002602001604051908101604052809291908181526020016000905b8282101561089e57838290600052602060002090600202016040518060400160405290816000820154815260200160018201548152505081526020019060010190610858565b5050505061127a565b91509150600081836108b991906119fc565b905060006108ca856000015461135a565b905060646078836108db919061184b565b6108e591906118bc565b8110610926576040517f08c379a000000000000000000000000000000000000000000000000000000000815260040161091d90611c2e565b60405180910390fd5b600160009054906101000a900473ffffffffffffffffffffffffffffffffffffffff1673ffffffffffffffffffffffffffffffffffffffff166323b872dd3330856040518463ffffffff1660e01b815260040161098593929190611c4e565b6020604051808303816000875af11580156109a4573d6000803e3d6000fd5b505050506040513d601f19601f820116820180604052508101906109c89190611b23565b610a07576040517f08c379a00000000000000000000000000000000000000000000000000000000081526004016109fe90611b9c565b60405180910390fd5b6000856000015490503373ffffffffffffffffffffffffffffffffffffffff166108fc829081150290604051600060405180830381858888f19350505050158015610a56573d6000803e3d6000fd5b5060008660000181905550856001016000610a71919061138b565b7ffa149b6f966139cc74dfaf2610f7b54d8823dbeed646b7da48d8144f510c3f218782604051610aa2929190611ac2565b60405180910390a150505050505050565b600a81565b60008311610afb576040517f08c379a0000000000000000000000000000000000000000000000000000000008152600401610af290611cf7565b60405180910390fd5b60008282905011610b41576040517f08c379a0000000000000000000000000000000000000000000000000000000008152600401610b3890611d89565b60405180910390fd5b6000600260003373ffffffffffffffffffffffffffffffffffffffff1673ffffffffffffffffffffffffffffffffffffffff168152602001908152602001600020905060008383905067ffffffffffffffff811115610ba357610ba261178a565b5b604051908082528060200260200182016040528015610bdc57816020015b610bc96113af565b815260200190600190039081610bc15790505b50905060005b84849050811015610cd6578260010180549050858583818110610c0857610c076117b9565b5b9050602002013510610c4f576040517f08c379a0000000000000000000000000000000000000000000000000000000008152600401610c4690611df5565b60405180910390fd5b82600101858583818110610c6657610c656117b9565b5b9050602002013581548110610c7e57610c7d6117b9565b5b906000526020600020906002020160405180604001604052908160008201548152602001600182015481525050828281518110610cbe57610cbd6117b9565b5b60200260200101819052508080600101915050610be2565b50600080610ce38361127a565b915091508082610cf391906119fc565b871015610d35576040517f08c379a0000000000000000000000000000000000000000000000000000000008152600401610d2c90611e87565b60405180910390fd5b600160009054906101000a900473ffffffffffffffffffffffffffffffffffffffff1673ffffffffffffffffffffffffffffffffffffffff166323b872dd33308486610d8191906119fc565b6040518463ffffffff1660e01b8152600401610d9f93929190611c4e565b6020604051808303816000875af1158015610dbe573d6000803e3d6000fd5b505050506040513d601f19601f82011682018060405250810190610de29190611b23565b610e21576040517f08c379a0000000000000000000000000000000000000000000000000000000008152600401610e1890611b9c565b60405180910390fd5b60005b86869050811015610ea757604051806040016040528060008152602001600081525085600101888884818110610e5d57610e5c6117b9565b5b9050602002013581548110610e7557610e746117b9565b5b906000526020600020906002020160008201518160000155602082015181600101559050508080600101915050610e24565b507ffd33c4a86186ff4298aed08fc13b7de1bfd20a63bb808515b5c76f51ca1d94c9338284610ed691906119fc565b604051610ee4929190611ac2565b60405180910390a150505050505050565b6000600260003373ffffffffffffffffffffffffffffffffffffffff1673ffffffffffffffffffffffffffffffffffffffff168152602001908152602001600020905060008211610f7b576040517f08c379a0000000000000000000000000000000000000000000000000000000008152600401610f7290611f19565b60405180910390fd5b8060000154821115610fc2576040517f08c379a0000000000000000000000000000000000000000000000000000000008152600401610fb990611fd1565b60405180910390fd5b6000828260000154610fd49190611817565b90506000610fe18261135a565b905060008061105c85600101805480602002602001604051908101604052809291908181526020016000905b828210156110535783829060005260206000209060020201604051806040016040529081600082015481526020016001820154815250508152602001906001019061100d565b5050505061127a565b915091506000818361106e91906119fc565b9050606460968261107f919061184b565b61108991906118bc565b8410156110cb576040517f08c379a00000000000000000000000000000000000000000000000000000000081526004016110c290612063565b60405180910390fd5b3373ffffffffffffffffffffffffffffffffffffffff166108fc889081150290604051600060405180830381858888f19350505050158015611111573d6000803e3d6000fd5b50868660000160008282546111269190611817565b925050819055507fc30fcfbcaac9e0deffa719714eaa82396ff506a0d0d0eebe170830177288715d338860405161115e929190611ac2565b60405180910390a150505050505050565b6000349050600081116111b7576040517f08c379a00000000000000000000000000000000000000000000000000000000081526004016111ae906120f5565b60405180910390fd5b80600260003373ffffffffffffffffffffffffffffffffffffffff1673ffffffffffffffffffffffffffffffffffffffff168152602001908152602001600020600001600082825461120991906119fc565b925050819055507fd7243f6f8212d5188fd054141cf6ea89cfc0d91facb8c3afe2f88a13584801423382604051611241929190611ac2565b60405180910390a150565b60008054906101000a900473ffffffffffffffffffffffffffffffffffffffff1681565b607881565b609681565b60008060008060005b855181101561134c5785818151811061129f5761129e6117b9565b5b602002602001015160000151836112b691906119fc565b92506301e133808682815181106112d0576112cf6117b9565b5b602002602001015160200151426112e79190611817565b6064600a8985815181106112fe576112fd6117b9565b5b602002602001015160000151611314919061184b565b61131e91906118bc565b611328919061184b565b61133291906118bc565b8261133d91906119fc565b91508080600101915050611283565b508181935093505050915091565b60006103e88261136a919061184b565b9050919050565b604051806040016040528060008152602001600081525090565b50805460008255600202906000526020600020908101906113ac91906113c9565b50565b604051806040016040528060008152602001600081525090565b5b808211156113ec576000808201600090556001820160009055506002016113ca565b5090565b600080fd5b600080fd5b600073ffffffffffffffffffffffffffffffffffffffff82169050919050565b6000611425826113fa565b9050919050565b6114358161141a565b811461144057600080fd5b50565b6000813590506114528161142c565b92915050565b60006020828403121561146e5761146d6113f0565b5b600061147c84828501611443565b91505092915050565b600081519050919050565b600082825260208201905092915050565b6000819050602082019050919050565b6000819050919050565b6114c4816114b1565b82525050565b6040820160008201516114e060008501826114bb565b5060208201516114f360208501826114bb565b50505050565b600061150583836114ca565b60408301905092915050565b6000602082019050919050565b600061152982611485565b6115338185611490565b935061153e836114a1565b8060005b8381101561156f57815161155688826114f9565b975061156183611511565b925050600181019050611542565b5085935050505092915050565b60006020820190508181036000830152611596818461151e565b905092915050565b6000819050919050565b60006115c36115be6115b9846113fa565b61159e565b6113fa565b9050919050565b60006115d5826115a8565b9050919050565b60006115e7826115ca565b9050919050565b6115f7816115dc565b82525050565b600060208201905061161260008301846115ee565b92915050565b611621816114b1565b811461162c57600080fd5b50565b60008135905061163e81611618565b92915050565b60006020828403121561165a576116596113f0565b5b60006116688482850161162f565b91505092915050565b61167a816114b1565b82525050565b60006020820190506116956000830184611671565b92915050565b600080fd5b600080fd5b600080fd5b60008083601f8401126116c0576116bf61169b565b5b8235905067ffffffffffffffff8111156116dd576116dc6116a0565b5b6020830191508360208202830111156116f9576116f86116a5565b5b9250929050565b600080600060408486031215611719576117186113f0565b5b60006117278682870161162f565b935050602084013567ffffffffffffffff811115611748576117476113f5565b5b611754868287016116aa565b92509250509250925092565b6117698161141a565b82525050565b60006020820190506117846000830184611760565b92915050565b7f4e487b7100000000000000000000000000000000000000000000000000000000600052604160045260246000fd5b7f4e487b7100000000000000000000000000000000000000000000000000000000600052603260045260246000fd5b7f4e487b7100000000000000000000000000000000000000000000000000000000600052601160045260246000fd5b6000611822826114b1565b915061182d836114b1565b9250828203905081811115611845576118446117e8565b5b92915050565b6000611856826114b1565b9150611861836114b1565b925082820261186f816114b1565b91508282048414831517611886576118856117e8565b5b5092915050565b7f4e487b7100000000000000000000000000000000000000000000000000000000600052601260045260246000fd5b60006118c7826114b1565b91506118d2836114b1565b9250826118e2576118e161188d565b5b828204905092915050565b600082825260208201905092915050565b7f4e6f20636f6c6c61746572616c206465706f7369746564000000000000000000600082015250565b60006119346017836118ed565b915061193f826118fe565b602082019050919050565b6000602082019050818103600083015261196381611927565b9050919050565b7f426f72726f7720616d6f756e742073686f756c6420626520677265617465722060008201527f7468616e20300000000000000000000000000000000000000000000000000000602082015250565b60006119c66026836118ed565b91506119d18261196a565b604082019050919050565b600060208201905081810360008301526119f5816119b9565b9050919050565b6000611a07826114b1565b9150611a12836114b1565b9250828201905080821115611a2a57611a296117e8565b5b92915050565b7f436f6c6c61746572616c206973206e6f7420656e6f75676820746f20626f727260008201527f6f77207468697320616d6f756e74000000000000000000000000000000000000602082015250565b6000611a8c602e836118ed565b9150611a9782611a30565b604082019050919050565b60006020820190508181036000830152611abb81611a7f565b9050919050565b6000604082019050611ad76000830185611760565b611ae46020830184611671565b9392505050565b60008115159050919050565b611b0081611aeb565b8114611b0b57600080fd5b50565b600081519050611b1d81611af7565b92915050565b600060208284031215611b3957611b386113f0565b5b6000611b4784828501611b0e565b91505092915050565b7f5472616e73666572206661696c65640000000000000000000000000000000000600082015250565b6000611b86600f836118ed565b9150611b9182611b50565b602082019050919050565b60006020820190508181036000830152611bb581611b79565b9050919050565b7f557365722063616e6e6f74206265206c69717569646174656420617320636f6c60008201527f6c61746572616c20697320656e6f756768000000000000000000000000000000602082015250565b6000611c186031836118ed565b9150611c2382611bbc565b604082019050919050565b60006020820190508181036000830152611c4781611c0b565b9050919050565b6000606082019050611c636000830186611760565b611c706020830185611760565b611c7d6040830184611671565b949350505050565b7f417574686f72697a656420616d6f756e742073686f756c64206265206772656160008201527f746572207468616e203000000000000000000000000000000000000000000000602082015250565b6000611ce1602a836118ed565b9150611cec82611c85565b604082019050919050565b60006020820190508181036000830152611d1081611cd4565b9050919050565b7f4d7573742073706563696679206174206c65617374206f6e65206c6f616e207460008201527f6f20726570617900000000000000000000000000000000000000000000000000602082015250565b6000611d736027836118ed565b9150611d7e82611d17565b604082019050919050565b60006020820190508181036000830152611da281611d66565b9050919050565b7f496e76616c6964206c6f616e20696e6465780000000000000000000000000000600082015250565b6000611ddf6012836118ed565b9150611dea82611da9565b602082019050919050565b60006020820190508181036000830152611e0e81611dd2565b9050919050565b7f417574686f72697a656420616d6f756e74206973206e6f7420656e6f7567682060008201527f746f207265706179207468657365206c6f616e73000000000000000000000000602082015250565b6000611e716034836118ed565b9150611e7c82611e15565b604082019050919050565b60006020820190508181036000830152611ea081611e64565b9050919050565b7f576974686472617720616d6f756e742073686f756c642062652067726561746560008201527f72207468616e2030000000000000000000000000000000000000000000000000602082015250565b6000611f036028836118ed565b9150611f0e82611ea7565b604082019050919050565b60006020820190508181036000830152611f3281611ef6565b9050919050565b7f576974686472617720616d6f756e742073686f756c64206265206c657373207460008201527f68616e206f7220657175616c20746f2074686520636f6c6c61746572616c206160208201527f6d6f756e74000000000000000000000000000000000000000000000000000000604082015250565b6000611fbb6045836118ed565b9150611fc682611f39565b606082019050919050565b60006020820190508181036000830152611fea81611fae565b9050919050565b7f436f6c6c61746572616c20776f6e7420626520656e6f75676820696620796f7560008201527f207769746864726177207468697320616d6f756e740000000000000000000000602082015250565b600061204d6035836118ed565b915061205882611ff1565b604082019050919050565b6000602082019050818103600083015261207c81612040565b9050919050565b7f4465706f73697420616d6f756e742073686f756c64206265206772656174657260008201527f207468616e203000000000000000000000000000000000000000000000000000602082015250565b60006120df6027836118ed565b91506120ea82612083565b604082019050919050565b6000602082019050818103600083015261210e816120d2565b905091905056fea26469706673582212208b470c3d3da05c736671cef71eb46b738935cf4ba3fb7d0d60b27cbbce0a1cb464736f6c634300081c0033",
  "linkReferences": {},
  "deployedLinkReferences": {}
}