{
  "_format": "hh-sol-artifact-1",
  "contractName": "CollateralX",
  "sourceName": "contracts/CollateralX.sol",
  "abi": [
    {
      "inputs": [
        {
          "internalType": "address",
          "name": "_stableCoinAddress",
          "type": "address"
        },
        {
          "internalType": "address",
          "name": "_priceFeedAddress",
          "type": "address"
        }
      ],
      "stateMutability": "nonpayable",
      "type": "constructor"
    },
    {
      "anonymous": false,
      "inputs": [
        {
          "indexed": false,
          "internalType": "address",
          "name": "user",
          "type": "address"
        },
        {
          "indexed": false,
          "internalType": "uint256",
          "name": "amount",
          "type": "uint256"
        }
      ],
      "name": "CollateralDeposited",
      "type": "event"
    },
    {
      "anonymous": false,
      "inputs": [
        {
          "indexed": false,
          "internalType": "address",
          "name": "user",
          "type": "address"
        },
        {
          "indexed": false,
          "internalType": "uint256",
          "name": "amount",
          "type": "uint256"
        }
      ],
      "name": "CollateralLiquidated",
      "type": "event"
    },
    {
      "anonymous": false,
      "inputs": [
        {
          "indexed": false,
          "internalType": "address",
          "name": "user",
          "type": "address"
        },
        {
          "indexed": false,
          "internalType": "uint256",
          "name": "amount",
          "type": "uint256"
        }
      ],
      "name": "CollateralWithdrawn",
      "type": "event"
    },
    {
      "anonymous": false,
      "inputs": [
        {
          "indexed": false,
          "internalType": "address",
          "name": "user",
          "type": "address"
        },
        {
          "indexed": false,
          "internalType": "uint256",
          "name": "amount",
          "type": "uint256"
        }
      ],
      "name": "StableCoinBorrowed",
      "type": "event"
    },
    {
      "anonymous": false,
      "inputs": [
        {
          "indexed": false,
          "internalType": "address",
          "name": "user",
          "type": "address"
        },
        {
          "indexed": false,
          "internalType": "uint256",
          "name": "amount",
          "type": "uint256"
        }
      ],
      "name": "StableCoinRepaid",
      "type": "event"
    },
    {
      "inputs": [],
      "name": "COLLATERAL_RATIO",
      "outputs": [
        {
          "internalType": "uint256",
          "name": "",
          "type": "uint256"
        }
      ],
      "stateMutability": "view",
      "type": "function"
    },
    {
      "inputs": [],
      "name": "INTEREST_RATE",
      "outputs": [
        {
          "internalType": "uint256",
          "name": "",
          "type": "uint256"
        }
      ],
      "stateMutability": "view",
      "type": "function"
    },
    {
      "inputs": [],
      "name": "LIQUIDATION_RATIO",
      "outputs": [
        {
          "internalType": "uint256",
          "name": "",
          "type": "uint256"
        }
      ],
      "stateMutability": "view",
      "type": "function"
    },
    {
      "inputs": [
        {
          "internalType": "uint256",
          "name": "amount",
          "type": "uint256"
        }
      ],
      "name": "borrowStableCoin",
      "outputs": [],
      "stateMutability": "nonpayable",
      "type": "function"
    },
    {
      "inputs": [],
      "name": "depositCollateral",
      "outputs": [],
      "stateMutability": "payable",
      "type": "function"
    },
    {
      "inputs": [
        {
          "internalType": "address",
          "name": "user",
          "type": "address"
        }
      ],
      "name": "getLoanStatus",
      "outputs": [
        {
          "components": [
            {
              "internalType": "uint256",
              "name": "principal",
              "type": "uint256"
            },
            {
              "internalType": "uint256",
              "name": "interest",
              "type": "uint256"
            },
            {
              "internalType": "uint256",
              "name": "timestamp",
              "type": "uint256"
            }
          ],
          "internalType": "struct CollateralX.LoanStatus[]",
          "name": "",
          "type": "tuple[]"
        }
      ],
      "stateMutability": "view",
      "type": "function"
    },
    {
      "inputs": [
        {
          "internalType": "address",
          "name": "user",
          "type": "address"
        }
      ],
      "name": "liquidate",
      "outputs": [],
      "stateMutability": "nonpayable",
      "type": "function"
    },
    {
      "inputs": [
        {
          "internalType": "address",
          "name": "",
          "type": "address"
        }
      ],
      "name": "loanAccounts",
      "outputs": [
        {
          "internalType": "uint256",
          "name": "collateralAmount",
          "type": "uint256"
        }
      ],
      "stateMutability": "view",
      "type": "function"
    },
    {
      "inputs": [],
      "name": "priceFeedAddress",
      "outputs": [
        {
          "internalType": "address",
          "name": "",
          "type": "address"
        }
      ],
      "stateMutability": "view",
      "type": "function"
    },
    {
      "inputs": [],
      "name": "priceFeedInterface",
      "outputs": [
        {
          "internalType": "contract AggregatorV3Interface",
          "name": "",
          "type": "address"
        }
      ],
      "stateMutability": "view",
      "type": "function"
    },
    {
      "inputs": [
        {
          "internalType": "uint256",
          "name": "amount",
          "type": "uint256"
        },
        {
          "internalType": "uint256[]",
          "name": "indexes",
          "type": "uint256[]"
        }
      ],
      "name": "repayStableCoin",
      "outputs": [],
      "stateMutability": "nonpayable",
      "type": "function"
    },
    {
      "inputs": [],
      "name": "stableCoinAddress",
      "outputs": [
        {
          "internalType": "address",
          "name": "",
          "type": "address"
        }
      ],
      "stateMutability": "view",
      "type": "function"
    },
    {
      "inputs": [],
      "name": "stableCoinInterface",
      "outputs": [
        {
          "internalType": "contract IERC20",
          "name": "",
          "type": "address"
        }
      ],
      "stateMutability": "view",
      "type": "function"
    },
    {
      "inputs": [
        {
          "internalType": "uint256",
          "name": "amount",
          "type": "uint256"
        }
      ],
      "name": "withdrawCollateral",
      "outputs": [],
      "stateMutability": "nonpayable",
      "type": "function"
    }
  ],
  "bytecode": "0x608060405234801561001057600080fd5b5060405161270b38038061270b8339818101604052810190610032919061019f565b816000806101000a81548173ffffffffffffffffffffffffffffffffffffffff021916908373ffffffffffffffffffffffffffffffffffffffff16021790555080600160006101000a81548173ffffffffffffffffffffffffffffffffffffffff021916908373ffffffffffffffffffffffffffffffffffffffff16021790555081600260006101000a81548173ffffffffffffffffffffffffffffffffffffffff021916908373ffffffffffffffffffffffffffffffffffffffff16021790555080600360006101000a81548173ffffffffffffffffffffffffffffffffffffffff021916908373ffffffffffffffffffffffffffffffffffffffff16021790555050506101df565b600080fd5b600073ffffffffffffffffffffffffffffffffffffffff82169050919050565b600061016c82610141565b9050919050565b61017c81610161565b811461018757600080fd5b50565b60008151905061019981610173565b92915050565b600080604083850312156101b6576101b561013c565b5b60006101c48582860161018a565b92505060206101d58582860161018a565b9150509250929050565b61251d806101ee6000396000f3fe6080604052600436106100dd5760003560e01c80635e0b7be71161007f578063982aae4611610059578063982aae461461028b578063c4323fea146102b6578063d9e69a05146102e1578063e0abca0b1461030c576100dd565b80635e0b7be71461022f5780636112fe2e146102585780636f75814014610281576100dd565b806321482558116100bb57806321482558146101735780632f865568146101b057806337c11315146101d95780635b72a33a14610204576100dd565b8063112130ad146100e257806318a26dc91461011f5780631b5f047c1461014a575b600080fd5b3480156100ee57600080fd5b5061010960048036038101906101049190611667565b610337565b604051610116919061179e565b60405180910390f35b34801561012b57600080fd5b50610134610517565b604051610141919061181f565b60405180910390f35b34801561015657600080fd5b50610171600480360381019061016c9190611866565b61053d565b005b34801561017f57600080fd5b5061019a60048036038101906101959190611667565b610886565b6040516101a791906118a2565b60405180910390f35b3480156101bc57600080fd5b506101d760048036038101906101d29190611667565b6108a4565b005b3480156101e557600080fd5b506101ee610b6c565b6040516101fb91906118de565b60405180910390f35b34801561021057600080fd5b50610219610b92565b60405161022691906118a2565b60405180910390f35b34801561023b57600080fd5b506102566004803603810190610251919061195e565b610b97565b005b34801561026457600080fd5b5061027f600480360381019061027a9190611866565b610fd4565b005b61028961124e565b005b34801561029757600080fd5b506102a061132b565b6040516102ad91906119cd565b60405180910390f35b3480156102c257600080fd5b506102cb61134f565b6040516102d891906118a2565b60405180910390f35b3480156102ed57600080fd5b506102f6611354565b60405161030391906118a2565b60405180910390f35b34801561031857600080fd5b50610321611359565b60405161032e91906119cd565b60405180910390f35b60606000600460008473ffffffffffffffffffffffffffffffffffffffff1673ffffffffffffffffffffffffffffffffffffffff16815260200190815260200160002090506000816001018054905067ffffffffffffffff81111561039f5761039e6119e8565b5b6040519080825280602002602001820160405280156103d857816020015b6103c5611579565b8152602001906001900390816103bd5790505b50905060005b826001018054905081101561050c57604051806060016040528084600101838154811061040e5761040d611a17565b5b90600052602060002090600202016000015481526020016301e133808560010184815481106104405761043f611a17565b5b9060005260206000209060020201600101544261045d9190611a75565b6064600a88600101878154811061047757610476611a17565b5b9060005260206000209060020201600001546104939190611aa9565b61049d9190611b1a565b6104a79190611aa9565b6104b19190611b1a565b81526020018460010183815481106104cc576104cb611a17565b5b9060005260206000209060020201600101548152508282815181106104f4576104f3611a17565b5b602002602001018190525080806001019150506103de565b508092505050919050565b600260009054906101000a900473ffffffffffffffffffffffffffffffffffffffff1681565b6000600460003373ffffffffffffffffffffffffffffffffffffffff1673ffffffffffffffffffffffffffffffffffffffff168152602001908152602001600020905060008160000154116105c7576040517f08c379a00000000000000000000000000000000000000000000000000000000081526004016105be90611ba8565b60405180910390fd5b6000821161060a576040517f08c379a000000000000000000000000000000000000000000000000000000000815260040161060190611c3a565b60405180910390fd5b60008061068383600101805480602002602001604051908101604052809291908181526020016000905b8282101561067a57838290600052602060002090600202016040518060400160405290816000820154815260200160018201548152505081526020019060010190610634565b5050505061137f565b9150915060008183866106969190611c5a565b6106a09190611c5a565b905060006106b1856000015461145f565b905060646096836106c29190611aa9565b6106cc9190611b1a565b81101561070e576040517f08c379a000000000000000000000000000000000000000000000000000000000815260040161070590611d00565b60405180910390fd5b600260009054906101000a900473ffffffffffffffffffffffffffffffffffffffff1673ffffffffffffffffffffffffffffffffffffffff1663a9059cbb33886040518363ffffffff1660e01b815260040161076b929190611d20565b6020604051808303816000875af115801561078a573d6000803e3d6000fd5b505050506040513d601f19601f820116820180604052508101906107ae9190611d81565b6107ed576040517f08c379a00000000000000000000000000000000000000000000000000000000081526004016107e490611dfa565b60405180910390fd5b846001016040518060400160405280888152602001428152509080600181540180825580915050600190039060005260206000209060020201600090919091909150600082015181600001556020820151816001015550507f258ce9c208464dbae40d3e50931e320ba4e9d3fd92875f412eacacc40a303ca03387604051610876929190611d20565b60405180910390a1505050505050565b60046020528060005260406000206000915090508060000154905081565b6000600460008373ffffffffffffffffffffffffffffffffffffffff1673ffffffffffffffffffffffffffffffffffffffff168152602001908152602001600020905060008061096083600101805480602002602001604051908101604052809291908181526020016000905b8282101561095757838290600052602060002090600202016040518060400160405290816000820154815260200160018201548152505081526020019060010190610911565b5050505061137f565b91509150600081836109729190611c5a565b90506000610983856000015461145f565b905060646078836109949190611aa9565b61099e9190611b1a565b81106109df576040517f08c379a00000000000000000000000000000000000000000000000000000000081526004016109d690611e8c565b60405180910390fd5b600260009054906101000a900473ffffffffffffffffffffffffffffffffffffffff1673ffffffffffffffffffffffffffffffffffffffff166323b872dd3330856040518463ffffffff1660e01b8152600401610a3e93929190611eac565b6020604051808303816000875af1158015610a5d573d6000803e3d6000fd5b505050506040513d601f19601f82011682018060405250810190610a819190611d81565b610ac0576040517f08c379a0000000000000000000000000000000000000000000000000000000008152600401610ab790611dfa565b60405180910390fd5b6000856000015490503373ffffffffffffffffffffffffffffffffffffffff166108fc829081150290604051600060405180830381858888f19350505050158015610b0f573d6000803e3d6000fd5b5060008660000181905550856001016000610b2a919061159a565b7ffa149b6f966139cc74dfaf2610f7b54d8823dbeed646b7da48d8144f510c3f218782604051610b5b929190611d20565b60405180910390a150505050505050565b600360009054906101000a900473ffffffffffffffffffffffffffffffffffffffff1681565b600a81565b60008311610bda576040517f08c379a0000000000000000000000000000000000000000000000000000000008152600401610bd190611f55565b60405180910390fd5b60008282905011610c20576040517f08c379a0000000000000000000000000000000000000000000000000000000008152600401610c1790611fe7565b60405180910390fd5b6000600460003373ffffffffffffffffffffffffffffffffffffffff1673ffffffffffffffffffffffffffffffffffffffff168152602001908152602001600020905060008383905067ffffffffffffffff811115610c8257610c816119e8565b5b604051908082528060200260200182016040528015610cbb57816020015b610ca86115be565b815260200190600190039081610ca05790505b50905060005b84849050811015610db5578260010180549050858583818110610ce757610ce6611a17565b5b9050602002013510610d2e576040517f08c379a0000000000000000000000000000000000000000000000000000000008152600401610d2590612053565b60405180910390fd5b82600101858583818110610d4557610d44611a17565b5b9050602002013581548110610d5d57610d5c611a17565b5b906000526020600020906002020160405180604001604052908160008201548152602001600182015481525050828281518110610d9d57610d9c611a17565b5b60200260200101819052508080600101915050610cc1565b50600080610dc28361137f565b915091508082610dd29190611c5a565b871015610e14576040517f08c379a0000000000000000000000000000000000000000000000000000000008152600401610e0b906120e5565b60405180910390fd5b600260009054906101000a900473ffffffffffffffffffffffffffffffffffffffff1673ffffffffffffffffffffffffffffffffffffffff166323b872dd33308486610e609190611c5a565b6040518463ffffffff1660e01b8152600401610e7e93929190611eac565b6020604051808303816000875af1158015610e9d573d6000803e3d6000fd5b505050506040513d601f19601f82011682018060405250810190610ec19190611d81565b610f00576040517f08c379a0000000000000000000000000000000000000000000000000000000008152600401610ef790611dfa565b60405180910390fd5b60005b86869050811015610f8657604051806040016040528060008152602001600081525085600101888884818110610f3c57610f3b611a17565b5b9050602002013581548110610f5457610f53611a17565b5b906000526020600020906002020160008201518160000155602082015181600101559050508080600101915050610f03565b507ffd33c4a86186ff4298aed08fc13b7de1bfd20a63bb808515b5c76f51ca1d94c9338284610fb59190611c5a565b604051610fc3929190611d20565b60405180910390a150505050505050565b6000600460003373ffffffffffffffffffffffffffffffffffffffff1673ffffffffffffffffffffffffffffffffffffffff16815260200190815260200160002090506000821161105a576040517f08c379a000000000000000000000000000000000000000000000000000000000815260040161105190612177565b60405180910390fd5b80600001548211156110a1576040517f08c379a00000000000000000000000000000000000000000000000000000000081526004016110989061222f565b60405180910390fd5b60008282600001546110b39190611a75565b905060006110c08261145f565b905060008061113b85600101805480602002602001604051908101604052809291908181526020016000905b82821015611132578382906000526020600020906002020160405180604001604052908160008201548152602001600182015481525050815260200190600101906110ec565b5050505061137f565b915091506000818361114d9190611c5a565b9050606460968261115e9190611aa9565b6111689190611b1a565b8410156111aa576040517f08c379a00000000000000000000000000000000000000000000000000000000081526004016111a1906122c1565b60405180910390fd5b3373ffffffffffffffffffffffffffffffffffffffff166108fc889081150290604051600060405180830381858888f193505050501580156111f0573d6000803e3d6000fd5b50868660000160008282546112059190611a75565b925050819055507fc30fcfbcaac9e0deffa719714eaa82396ff506a0d0d0eebe170830177288715d338860405161123d929190611d20565b60405180910390a150505050505050565b600034905060008111611296576040517f08c379a000000000000000000000000000000000000000000000000000000000815260040161128d90612353565b60405180910390fd5b80600460003373ffffffffffffffffffffffffffffffffffffffff1673ffffffffffffffffffffffffffffffffffffffff16815260200190815260200160002060000160008282546112e89190611c5a565b925050819055507fd7243f6f8212d5188fd054141cf6ea89cfc0d91facb8c3afe2f88a13584801423382604051611320929190611d20565b60405180910390a150565b60008054906101000a900473ffffffffffffffffffffffffffffffffffffffff1681565b607881565b609681565b600160009054906101000a900473ffffffffffffffffffffffffffffffffffffffff1681565b60008060008060005b8551811015611451578581815181106113a4576113a3611a17565b5b602002602001015160000151836113bb9190611c5a565b92506301e133808682815181106113d5576113d4611a17565b5b602002602001015160200151426113ec9190611a75565b6064600a89858151811061140357611402611a17565b5b6020026020010151600001516114199190611aa9565b6114239190611b1a565b61142d9190611aa9565b6114379190611b1a565b826114429190611c5a565b91508080600101915050611388565b508181935093505050915091565b600080600360009054906101000a900473ffffffffffffffffffffffffffffffffffffffff1673ffffffffffffffffffffffffffffffffffffffff1663feaf968c6040518163ffffffff1660e01b815260040160a060405180830381865afa1580156114cf573d6000803e3d6000fd5b505050506040513d601f19601f820116820180604052508101906114f39190612400565b5050509150506000811361153c576040517f08c379a0000000000000000000000000000000000000000000000000000000008152600401611533906124c7565b60405180910390fd5b60006402540be4008261154f9190611aa9565b9050670de0b6b3a764000081856115669190611aa9565b6115709190611b1a565b92505050919050565b60405180606001604052806000815260200160008152602001600081525090565b50805460008255600202906000526020600020908101906115bb91906115d8565b50565b604051806040016040528060008152602001600081525090565b5b808211156115fb576000808201600090556001820160009055506002016115d9565b5090565b600080fd5b600080fd5b600073ffffffffffffffffffffffffffffffffffffffff82169050919050565b600061163482611609565b9050919050565b61164481611629565b811461164f57600080fd5b50565b6000813590506116618161163b565b92915050565b60006020828403121561167d5761167c6115ff565b5b600061168b84828501611652565b91505092915050565b600081519050919050565b600082825260208201905092915050565b6000819050602082019050919050565b6000819050919050565b6116d3816116c0565b82525050565b6060820160008201516116ef60008501826116ca565b50602082015161170260208501826116ca565b50604082015161171560408501826116ca565b50505050565b600061172783836116d9565b60608301905092915050565b6000602082019050919050565b600061174b82611694565b611755818561169f565b9350611760836116b0565b8060005b83811015611791578151611778888261171b565b975061178383611733565b925050600181019050611764565b5085935050505092915050565b600060208201905081810360008301526117b88184611740565b905092915050565b6000819050919050565b60006117e56117e06117db84611609565b6117c0565b611609565b9050919050565b60006117f7826117ca565b9050919050565b6000611809826117ec565b9050919050565b611819816117fe565b82525050565b60006020820190506118346000830184611810565b92915050565b611843816116c0565b811461184e57600080fd5b50565b6000813590506118608161183a565b92915050565b60006020828403121561187c5761187b6115ff565b5b600061188a84828501611851565b91505092915050565b61189c816116c0565b82525050565b60006020820190506118b76000830184611893565b92915050565b60006118c8826117ec565b9050919050565b6118d8816118bd565b82525050565b60006020820190506118f360008301846118cf565b92915050565b600080fd5b600080fd5b600080fd5b60008083601f84011261191e5761191d6118f9565b5b8235905067ffffffffffffffff81111561193b5761193a6118fe565b5b60208301915083602082028301111561195757611956611903565b5b9250929050565b600080600060408486031215611977576119766115ff565b5b600061198586828701611851565b935050602084013567ffffffffffffffff8111156119a6576119a5611604565b5b6119b286828701611908565b92509250509250925092565b6119c781611629565b82525050565b60006020820190506119e260008301846119be565b92915050565b7f4e487b7100000000000000000000000000000000000000000000000000000000600052604160045260246000fd5b7f4e487b7100000000000000000000000000000000000000000000000000000000600052603260045260246000fd5b7f4e487b7100000000000000000000000000000000000000000000000000000000600052601160045260246000fd5b6000611a80826116c0565b9150611a8b836116c0565b9250828203905081811115611aa357611aa2611a46565b5b92915050565b6000611ab4826116c0565b9150611abf836116c0565b9250828202611acd816116c0565b91508282048414831517611ae457611ae3611a46565b5b5092915050565b7f4e487b7100000000000000000000000000000000000000000000000000000000600052601260045260246000fd5b6000611b25826116c0565b9150611b30836116c0565b925082611b4057611b3f611aeb565b5b828204905092915050565b600082825260208201905092915050565b7f4e6f20636f6c6c61746572616c206465706f7369746564000000000000000000600082015250565b6000611b92601783611b4b565b9150611b9d82611b5c565b602082019050919050565b60006020820190508181036000830152611bc181611b85565b9050919050565b7f426f72726f7720616d6f756e742073686f756c6420626520677265617465722060008201527f7468616e20300000000000000000000000000000000000000000000000000000602082015250565b6000611c24602683611b4b565b9150611c2f82611bc8565b604082019050919050565b60006020820190508181036000830152611c5381611c17565b9050919050565b6000611c65826116c0565b9150611c70836116c0565b9250828201905080821115611c8857611c87611a46565b5b92915050565b7f436f6c6c61746572616c206973206e6f7420656e6f75676820746f20626f727260008201527f6f77207468697320616d6f756e74000000000000000000000000000000000000602082015250565b6000611cea602e83611b4b565b9150611cf582611c8e565b604082019050919050565b60006020820190508181036000830152611d1981611cdd565b9050919050565b6000604082019050611d3560008301856119be565b611d426020830184611893565b9392505050565b60008115159050919050565b611d5e81611d49565b8114611d6957600080fd5b50565b600081519050611d7b81611d55565b92915050565b600060208284031215611d9757611d966115ff565b5b6000611da584828501611d6c565b91505092915050565b7f5472616e73666572206661696c65640000000000000000000000000000000000600082015250565b6000611de4600f83611b4b565b9150611def82611dae565b602082019050919050565b60006020820190508181036000830152611e1381611dd7565b9050919050565b7f557365722063616e6e6f74206265206c69717569646174656420617320636f6c60008201527f6c61746572616c20697320656e6f756768000000000000000000000000000000602082015250565b6000611e76603183611b4b565b9150611e8182611e1a565b604082019050919050565b60006020820190508181036000830152611ea581611e69565b9050919050565b6000606082019050611ec160008301866119be565b611ece60208301856119be565b611edb6040830184611893565b949350505050565b7f417574686f72697a656420616d6f756e742073686f756c64206265206772656160008201527f746572207468616e203000000000000000000000000000000000000000000000602082015250565b6000611f3f602a83611b4b565b9150611f4a82611ee3565b604082019050919050565b60006020820190508181036000830152611f6e81611f32565b9050919050565b7f4d7573742073706563696679206174206c65617374206f6e65206c6f616e207460008201527f6f20726570617900000000000000000000000000000000000000000000000000602082015250565b6000611fd1602783611b4b565b9150611fdc82611f75565b604082019050919050565b6000602082019050818103600083015261200081611fc4565b9050919050565b7f496e76616c6964206c6f616e20696e6465780000000000000000000000000000600082015250565b600061203d601283611b4b565b915061204882612007565b602082019050919050565b6000602082019050818103600083015261206c81612030565b9050919050565b7f417574686f72697a656420616d6f756e74206973206e6f7420656e6f7567682060008201527f746f207265706179207468657365206c6f616e73000000000000000000000000602082015250565b60006120cf603483611b4b565b91506120da82612073565b604082019050919050565b600060208201905081810360008301526120fe816120c2565b9050919050565b7f576974686472617720616d6f756e742073686f756c642062652067726561746560008201527f72207468616e2030000000000000000000000000000000000000000000000000602082015250565b6000612161602883611b4b565b915061216c82612105565b604082019050919050565b6000602082019050818103600083015261219081612154565b9050919050565b7f576974686472617720616d6f756e742073686f756c64206265206c657373207460008201527f68616e206f7220657175616c20746f2074686520636f6c6c61746572616c206160208201527f6d6f756e74000000000000000000000000000000000000000000000000000000604082015250565b6000612219604583611b4b565b915061222482612197565b606082019050919050565b600060208201905081810360008301526122488161220c565b9050919050565b7f436f6c6c61746572616c20776f6e7420626520656e6f75676820696620796f7560008201527f207769746864726177207468697320616d6f756e740000000000000000000000602082015250565b60006122ab603583611b4b565b91506122b68261224f565b604082019050919050565b600060208201905081810360008301526122da8161229e565b9050919050565b7f4465706f73697420616d6f756e742073686f756c64206265206772656174657260008201527f207468616e203000000000000000000000000000000000000000000000000000602082015250565b600061233d602783611b4b565b9150612348826122e1565b604082019050919050565b6000602082019050818103600083015261236c81612330565b9050919050565b600069ffffffffffffffffffff82169050919050565b61239281612373565b811461239d57600080fd5b50565b6000815190506123af81612389565b92915050565b6000819050919050565b6123c8816123b5565b81146123d357600080fd5b50565b6000815190506123e5816123bf565b92915050565b6000815190506123fa8161183a565b92915050565b600080600080600060a0868803121561241c5761241b6115ff565b5b600061242a888289016123a0565b955050602061243b888289016123d6565b945050604061244c888289016123eb565b935050606061245d888289016123eb565b925050608061246e888289016123a0565b9150509295509295909350565b7f496e76616c696420707269636520666565640000000000000000000000000000600082015250565b60006124b1601283611b4b565b91506124bc8261247b565b602082019050919050565b600060208201905081810360008301526124e0816124a4565b905091905056fea26469706673582212202bb19642ffdde6877e244606f522b4481a36b76bd2abf23b961ea83369945e4664736f6c634300081c0033",
  "linkReferences": {},
  "deployedLinkReferences": {}
}